{
  "_format": "hh-sol-artifact-1",
  "contractName": "VirtueContract",
  "sourceName": "contracts/VirtueContract.sol",
  "abi": [
    {
      "anonymous": false,
      "inputs": [
        {
          "indexed": true,
          "internalType": "address",
          "name": "donor",
          "type": "address"
        },
        {
          "indexed": true,
          "internalType": "string",
          "name": "name",
          "type": "string"
        },
        {
          "indexed": false,
          "internalType": "uint256",
          "name": "amount",
          "type": "uint256"
        },
        {
          "indexed": false,
          "internalType": "string",
          "name": "content",
          "type": "string"
        }
      ],
      "name": "DonationMade",
      "type": "event"
    },
    {
      "anonymous": false,
      "inputs": [
        {
          "indexed": true,
          "internalType": "address",
          "name": "previousOwner",
          "type": "address"
        },
        {
          "indexed": true,
          "internalType": "address",
          "name": "newOwner",
          "type": "address"
        }
      ],
      "name": "OwnershipTransferred",
      "type": "event"
    },
    {
      "inputs": [
        {
          "internalType": "string",
          "name": "",
          "type": "string"
        },
        {
          "internalType": "uint256",
          "name": "",
          "type": "uint256"
        }
      ],
      "name": "donateRecordByDate",
      "outputs": [
        {
          "internalType": "uint256",
          "name": "donateID",
          "type": "uint256"
        },
        {
          "internalType": "address",
          "name": "donor",
          "type": "address"
        },
        {
          "internalType": "string",
          "name": "name",
          "type": "string"
        },
        {
          "internalType": "string",
          "name": "content",
          "type": "string"
        },
        {
          "internalType": "uint256",
          "name": "amount",
          "type": "uint256"
        },
        {
          "internalType": "uint256",
          "name": "donateCnt",
          "type": "uint256"
        }
      ],
      "stateMutability": "view",
      "type": "function"
    },
    {
      "inputs": [
        {
          "internalType": "string",
          "name": "inDate",
          "type": "string"
        },
        {
          "internalType": "uint256",
          "name": "inAmount",
          "type": "uint256"
        },
        {
          "internalType": "string",
          "name": "inName",
          "type": "string"
        },
        {
          "internalType": "string",
          "name": "inContent",
          "type": "string"
        }
      ],
      "name": "donateVirtue",
      "outputs": [],
      "stateMutability": "payable",
      "type": "function"
    },
    {
      "inputs": [
        {
          "internalType": "uint256",
          "name": "",
          "type": "uint256"
        }
      ],
      "name": "donationsDic",
      "outputs": [
        {
          "internalType": "uint256",
          "name": "donateID",
          "type": "uint256"
        },
        {
          "internalType": "address",
          "name": "donor",
          "type": "address"
        },
        {
          "internalType": "string",
          "name": "name",
          "type": "string"
        },
        {
          "internalType": "string",
          "name": "content",
          "type": "string"
        },
        {
          "internalType": "uint256",
          "name": "amount",
          "type": "uint256"
        },
        {
          "internalType": "uint256",
          "name": "donateCnt",
          "type": "uint256"
        }
      ],
      "stateMutability": "view",
      "type": "function"
    },
    {
      "inputs": [
        {
          "internalType": "uint256",
          "name": "",
          "type": "uint256"
        },
        {
          "internalType": "uint256",
          "name": "",
          "type": "uint256"
        }
      ],
      "name": "donationsHistory",
      "outputs": [
        {
          "internalType": "uint256",
          "name": "donateID",
          "type": "uint256"
        },
        {
          "internalType": "address",
          "name": "donor",
          "type": "address"
        },
        {
          "internalType": "string",
          "name": "name",
          "type": "string"
        },
        {
          "internalType": "string",
          "name": "content",
          "type": "string"
        },
        {
          "internalType": "uint256",
          "name": "amount",
          "type": "uint256"
        },
        {
          "internalType": "uint256",
          "name": "donateCnt",
          "type": "uint256"
        }
      ],
      "stateMutability": "view",
      "type": "function"
    },
    {
      "inputs": [
        {
          "internalType": "string",
          "name": "name",
          "type": "string"
        }
      ],
      "name": "getDonationHistory",
      "outputs": [
        {
          "components": [
            {
              "internalType": "uint256",
              "name": "donateID",
              "type": "uint256"
            },
            {
              "internalType": "address",
              "name": "donor",
              "type": "address"
            },
            {
              "internalType": "string",
              "name": "name",
              "type": "string"
            },
            {
              "internalType": "string",
              "name": "content",
              "type": "string"
            },
            {
              "internalType": "uint256",
              "name": "amount",
              "type": "uint256"
            },
            {
              "internalType": "uint256",
              "name": "donateCnt",
              "type": "uint256"
            }
          ],
          "internalType": "struct VirtueContract.Donation[]",
          "name": "",
          "type": "tuple[]"
        }
      ],
      "stateMutability": "view",
      "type": "function"
    },
    {
      "inputs": [
        {
          "internalType": "string",
          "name": "name",
          "type": "string"
        }
      ],
      "name": "getDonationInfo",
      "outputs": [
        {
          "components": [
            {
              "internalType": "uint256",
              "name": "donateID",
              "type": "uint256"
            },
            {
              "internalType": "address",
              "name": "donor",
              "type": "address"
            },
            {
              "internalType": "string",
              "name": "name",
              "type": "string"
            },
            {
              "internalType": "string",
              "name": "content",
              "type": "string"
            },
            {
              "internalType": "uint256",
              "name": "amount",
              "type": "uint256"
            },
            {
              "internalType": "uint256",
              "name": "donateCnt",
              "type": "uint256"
            }
          ],
          "internalType": "struct VirtueContract.Donation",
          "name": "",
          "type": "tuple"
        }
      ],
      "stateMutability": "view",
      "type": "function"
    },
    {
      "inputs": [
        {
          "internalType": "uint256",
          "name": "startIdx",
          "type": "uint256"
        },
        {
          "internalType": "uint256",
          "name": "pageSize",
          "type": "uint256"
        }
      ],
      "name": "getDonorsList",
      "outputs": [
        {
          "internalType": "uint256",
          "name": "",
          "type": "uint256"
        },
        {
          "components": [
            {
              "internalType": "uint256",
              "name": "donateID",
              "type": "uint256"
            },
            {
              "internalType": "address",
              "name": "donor",
              "type": "address"
            },
            {
              "internalType": "string",
              "name": "name",
              "type": "string"
            },
            {
              "internalType": "string",
              "name": "content",
              "type": "string"
            },
            {
              "internalType": "uint256",
              "name": "amount",
              "type": "uint256"
            },
            {
              "internalType": "uint256",
              "name": "donateCnt",
              "type": "uint256"
            }
          ],
          "internalType": "struct VirtueContract.Donation[]",
          "name": "",
          "type": "tuple[]"
        }
      ],
      "stateMutability": "view",
      "type": "function"
    },
    {
      "inputs": [
        {
          "internalType": "string",
          "name": "inDate",
          "type": "string"
        },
        {
          "internalType": "uint256",
          "name": "startIdx",
          "type": "uint256"
        },
        {
          "internalType": "uint256",
          "name": "pageSize",
          "type": "uint256"
        }
      ],
      "name": "getDonorsListByDate",
      "outputs": [
        {
          "internalType": "uint256",
          "name": "",
          "type": "uint256"
        },
        {
          "components": [
            {
              "internalType": "uint256",
              "name": "donateID",
              "type": "uint256"
            },
            {
              "internalType": "address",
              "name": "donor",
              "type": "address"
            },
            {
              "internalType": "string",
              "name": "name",
              "type": "string"
            },
            {
              "internalType": "string",
              "name": "content",
              "type": "string"
            },
            {
              "internalType": "uint256",
              "name": "amount",
              "type": "uint256"
            },
            {
              "internalType": "uint256",
              "name": "donateCnt",
              "type": "uint256"
            }
          ],
          "internalType": "struct VirtueContract.Donation[]",
          "name": "",
          "type": "tuple[]"
        }
      ],
      "stateMutability": "view",
      "type": "function"
    },
    {
      "inputs": [],
      "name": "getMyBalance",
      "outputs": [
        {
          "internalType": "uint256",
          "name": "",
          "type": "uint256"
        }
      ],
      "stateMutability": "view",
      "type": "function"
    },
    {
      "inputs": [],
      "name": "owner",
      "outputs": [
        {
          "internalType": "address",
          "name": "",
          "type": "address"
        }
      ],
      "stateMutability": "view",
      "type": "function"
    },
    {
      "inputs": [],
      "name": "renounceOwnership",
      "outputs": [],
      "stateMutability": "nonpayable",
      "type": "function"
    },
    {
      "inputs": [
        {
          "internalType": "uint256",
          "name": "",
          "type": "uint256"
        }
      ],
      "name": "totalDonations",
      "outputs": [
        {
          "internalType": "uint256",
          "name": "",
          "type": "uint256"
        }
      ],
      "stateMutability": "view",
      "type": "function"
    },
    {
      "inputs": [
        {
          "internalType": "address",
          "name": "newOwner",
          "type": "address"
        }
      ],
      "name": "transferOwnership",
      "outputs": [],
      "stateMutability": "nonpayable",
      "type": "function"
    },
    {
      "inputs": [],
      "name": "withdraw",
      "outputs": [],
      "stateMutability": "nonpayable",
      "type": "function"
    }
  ],
  "bytecode": "0x608060405234801561001057600080fd5b5061001a3361001f565b61006f565b600080546001600160a01b038381166001600160a01b0319831681178455604051919092169283917f8be0079c531659141344cd1fd0a4f28419497f9722a3daafe3b4186f6b6457e09190a35050565b611b6f8061007e6000396000f3fe6080604052600436106100dd5760003560e01c80634d38ffb71161007f5780638da5cb5b116100595780638da5cb5b146102345780639f1482e41461025c578063d0d0c33e14610289578063f2fde38b146102b657600080fd5b80634d38ffb7146101df57806363460e2f146101ff578063715018a61461021f57600080fd5b80632cf91a6b116100bb5780632cf91a6b1461016b57806336a401f1146101985780633ccfd60b146101ad5780634c738909146101c257600080fd5b806307f635cd146100e25780630fc5482914610119578063249dd23014610139575b600080fd5b3480156100ee57600080fd5b506101026100fd36600461159c565b6102d6565b6040516101109291906116d9565b60405180910390f35b34801561012557600080fd5b5061010261013436600461179d565b6105a2565b34801561014557600080fd5b5061015961015436600461159c565b61091f565b604051610110969594939291906117eb565b34801561017757600080fd5b5061018b61018636600461183d565b610a8f565b6040516101109190611872565b6101ab6101a636600461188c565b610c37565b005b3480156101b957600080fd5b506101ab611087565b3480156101ce57600080fd5b50475b604051908152602001610110565b3480156101eb57600080fd5b506101596101fa36600461191e565b6110dc565b34801561020b57600080fd5b5061015961021a366004611963565b611107565b34801561022b57600080fd5b506101ab61113a565b34801561024057600080fd5b506000546040516001600160a01b039091168152602001610110565b34801561026857600080fd5b506101d1610277366004611963565b60036020526000908152604090205481565b34801561029557600080fd5b506102a96102a436600461183d565b61114e565b604051610110919061197c565b3480156102c257600080fd5b506101ab6102d136600461198f565b611337565b6005546000906060901561030e57600554841061030e5760405162461bcd60e51b8152600401610305906119b8565b60405180910390fd5b6000831161031b57600a92505b600061032784866119f5565b6005549091508111610339578061033d565b6005545b90508085111561035f5760405162461bcd60e51b8152600401610305906119b8565b600061036b8683611a0d565b67ffffffffffffffff811115610383576103836116fa565b6040519080825280602002602001820160405280156103bc57816020015b6103a96114c4565b8152602001906001900390816103a15790505b509050855b828110156105935760026000600583815481106103e0576103e0611a24565b600091825260208083209091015483528281019390935260409182019020815160c0810183528154815260018201546001600160a01b031693810193909352600281018054919284019161043390611a3a565b80601f016020809104026020016040519081016040528092919081815260200182805461045f90611a3a565b80156104ac5780601f10610481576101008083540402835291602001916104ac565b820191906000526020600020905b81548152906001019060200180831161048f57829003601f168201915b505050505081526020016003820180546104c590611a3a565b80601f01602080910402602001604051908101604052809291908181526020018280546104f190611a3a565b801561053e5780601f106105135761010080835404028352916020019161053e565b820191906000526020600020905b81548152906001019060200180831161052157829003601f168201915b505050918352505060048201546020820152600590910154604090910152826105678984611a0d565b8151811061057757610577611a24565b60200260200101819052508061058c90611a75565b90506103c1565b50600554969095509350505050565b6000606060006004866040516105b89190611a90565b90815260405190819003602001902054111561060c576004856040516105de9190611a90565b90815260405190819003602001902054841061060c5760405162461bcd60e51b8152600401610305906119b8565b6000831161061957600a92505b600061062584866119f5565b90506004866040516106379190611a90565b9081526040519081900360200190205481116106535780610674565b6004866040516106639190611a90565b908152604051908190036020019020545b9050808511156106965760405162461bcd60e51b8152600401610305906119b8565b60006106a28683611a0d565b67ffffffffffffffff8111156106ba576106ba6116fa565b6040519080825280602002602001820160405280156106f357816020015b6106e06114c4565b8152602001906001900390816106d85790505b509050855b828110156108f1576004886040516107109190611a90565b9081526020016040518091039020818154811061072f5761072f611a24565b90600052602060002090600602016040518060c0016040529081600082015481526020016001820160009054906101000a90046001600160a01b03166001600160a01b03166001600160a01b0316815260200160028201805461079190611a3a565b80601f01602080910402602001604051908101604052809291908181526020018280546107bd90611a3a565b801561080a5780601f106107df5761010080835404028352916020019161080a565b820191906000526020600020905b8154815290600101906020018083116107ed57829003601f168201915b5050505050815260200160038201805461082390611a3a565b80601f016020809104026020016040519081016040528092919081815260200182805461084f90611a3a565b801561089c5780601f106108715761010080835404028352916020019161089c565b820191906000526020600020905b81548152906001019060200180831161087f57829003601f168201915b505050918352505060048201546020820152600590910154604090910152826108c58984611a0d565b815181106108d5576108d5611a24565b6020026020010181905250806108ea90611a75565b90506106f8565b506004876040516109029190611a90565b908152604051908190036020019020549350915050935093915050565b6001602052816000526040600020818154811061093b57600080fd5b60009182526020909120600690910201805460018201546002830180549295506001600160a01b0390911693509061097290611a3a565b80601f016020809104026020016040519081016040528092919081815260200182805461099e90611a3a565b80156109eb5780601f106109c0576101008083540402835291602001916109eb565b820191906000526020600020905b8154815290600101906020018083116109ce57829003601f168201915b505050505090806003018054610a0090611a3a565b80601f0160208091040260200160405190810160405280929190818152602001828054610a2c90611a3a565b8015610a795780601f10610a4e57610100808354040283529160200191610a79565b820191906000526020600020905b815481529060010190602001808311610a5c57829003601f168201915b5050505050908060040154908060050154905086565b610a976114c4565b60003383604051602001610aac929190611aac565b60408051601f198184030181528282528051602091820120600081815260028084529084902060c0860185528054865260018101546001600160a01b03169386019390935282018054919550919284019190610b0790611a3a565b80601f0160208091040260200160405190810160405280929190818152602001828054610b3390611a3a565b8015610b805780601f10610b5557610100808354040283529160200191610b80565b820191906000526020600020905b815481529060010190602001808311610b6357829003601f168201915b50505050508152602001600382018054610b9990611a3a565b80601f0160208091040260200160405190810160405280929190818152602001828054610bc590611a3a565b8015610c125780601f10610be757610100808354040283529160200191610c12565b820191906000526020600020905b815481529060010190602001808311610bf557829003601f168201915b5050505050815260200160048201548152602001600582015481525050915050919050565b610c786040518060400160405280601a81526020017f646f6e617465566972747565203d3d3d3d3d3d3d3d3d3d3d3e200000000000008152508434856113b0565b60008311610cc85760405162461bcd60e51b815260206004820152601d60248201527f416d6f756e74206d7573742062652067726561746572207468616e20300000006044820152606401610305565b82341015610d0b5760405162461bcd60e51b815260206004820152601060248201526f4e6f7420656e6f7567682076616c756560801b6044820152606401610305565b60003383604051602001610d20929190611aac565b60408051601f19818403018152828252805160209182012060c08401835280845233918401919091528282018690526060830185905260808301879052600160a08401529051909250600490610d77908890611a90565b908152604080516020928190038301902080546001808201835560009283529184902085516006909202019081558484015191810180546001600160a01b0319166001600160a01b03909316929092179091559083015180518493610de3926002850192910190611503565b5060608201518051610dff916003840191602090910190611503565b506080820151600482015560a090910151600590910155600082815260026020526040902054610f11576005805460018082019092557f036b6384b5eca791c62761152d0c79bb0604c104a5fb6f4eb0703f3154bb3db0018390556040805160c08101825284815233602080830191825282840189815260608401899052608084018b905260a084018690526000888152600280845295902084518155925195830180546001600160a01b0319166001600160a01b03909716969096179095559351805192949193610ed993908501929190910190611503565b5060608201518051610ef5916003840191602090910190611503565b506080820151600482015560a090910151600590910155610f67565b60008281526002602090815260409091208451610f3692600390920191860190611503565b50600082815260026020526040902060050154610f549060016119f5565b6000838152600260205260409020600501555b6000828152600160208181526040808420805480850182559085529382902085516006909502019384558482015192840180546001600160a01b0319166001600160a01b0390941693909317909255908301518051849392610fd0926002850192910190611503565b5060608201518051610fec916003840191602090910190611503565b506080820151600482015560a090910151600590910155600082815260036020526040812080548792906110219084906119f5565b9091555050604051611034908590611a90565b6040518091039020336001600160a01b03167fb181d9edb9766cf1d5d2d93d221c323edb97707e98efe93900db788607b943068786604051611077929190611ae4565b60405180910390a3505050505050565b61108f6113f9565b604051600090339047908381818185875af1925050503d80600081146110d1576040519150601f19603f3d011682016040523d82523d6000602084013e6110d6565b606091505b50505050565b8151602081840181018051600482529282019185019190912091905280548290811061093b57600080fd5b600260208190526000918252604090912080546001820154928201805491936001600160a01b0316929161097290611a3a565b6111426113f9565b61114c6000611453565b565b606060003383604051602001611165929190611aac565b60408051601f19818403018152828252805160209182012060008181526001835283812080548085028701850190955284865291955090929184015b8282101561132b5760008481526020908190206040805160c081018252600686029092018054835260018101546001600160a01b031693830193909352600283018054929392918401916111f490611a3a565b80601f016020809104026020016040519081016040528092919081815260200182805461122090611a3a565b801561126d5780601f106112425761010080835404028352916020019161126d565b820191906000526020600020905b81548152906001019060200180831161125057829003601f168201915b5050505050815260200160038201805461128690611a3a565b80601f01602080910402602001604051908101604052809291908181526020018280546112b290611a3a565b80156112ff5780601f106112d4576101008083540402835291602001916112ff565b820191906000526020600020905b8154815290600101906020018083116112e257829003601f168201915b5050505050815260200160048201548152602001600582015481525050815260200190600101906111a1565b50505050915050919050565b61133f6113f9565b6001600160a01b0381166113a45760405162461bcd60e51b815260206004820152602660248201527f4f776e61626c653a206e6577206f776e657220697320746865207a65726f206160448201526564647265737360d01b6064820152608401610305565b6113ad81611453565b50565b6110d6848484846040516024016113ca9493929190611afd565b60408051601f198184030181529190526020810180516001600160e01b03166342a59a4b60e11b1790526114a3565b6000546001600160a01b0316331461114c5760405162461bcd60e51b815260206004820181905260248201527f4f776e61626c653a2063616c6c6572206973206e6f7420746865206f776e65726044820152606401610305565b600080546001600160a01b038381166001600160a01b0319831681178455604051919092169283917f8be0079c531659141344cd1fd0a4f28419497f9722a3daafe3b4186f6b6457e09190a35050565b80516a636f6e736f6c652e6c6f67602083016000808483855afa5050505050565b6040518060c001604052806000815260200160006001600160a01b03168152602001606081526020016060815260200160008152602001600081525090565b82805461150f90611a3a565b90600052602060002090601f0160209004810192826115315760008555611577565b82601f1061154a57805160ff1916838001178555611577565b82800160010185558215611577579182015b8281111561157757825182559160200191906001019061155c565b50611583929150611587565b5090565b5b808211156115835760008155600101611588565b600080604083850312156115af57600080fd5b50508035926020909101359150565b60005b838110156115d95781810151838201526020016115c1565b838111156110d65750506000910152565b600081518084526116028160208601602086016115be565b601f01601f19169290920160200192915050565b8051825260018060a01b0360208201511660208301526000604082015160c0604085015261164760c08501826115ea565b90506060830151848203606086015261166082826115ea565b9150506080830151608085015260a083015160a08501528091505092915050565b600082825180855260208086019550808260051b84010181860160005b848110156116cc57601f198684030189526116ba838351611616565b9884019892509083019060010161169e565b5090979650505050505050565b8281526040602082015260006116f26040830184611681565b949350505050565b634e487b7160e01b600052604160045260246000fd5b600082601f83011261172157600080fd5b813567ffffffffffffffff8082111561173c5761173c6116fa565b604051601f8301601f19908116603f01168101908282118183101715611764576117646116fa565b8160405283815286602085880101111561177d57600080fd5b836020870160208301376000602085830101528094505050505092915050565b6000806000606084860312156117b257600080fd5b833567ffffffffffffffff8111156117c957600080fd5b6117d586828701611710565b9660208601359650604090950135949350505050565b8681526001600160a01b038616602082015260c060408201819052600090611815908301876115ea565b828103606084015261182781876115ea565b6080840195909552505060a00152949350505050565b60006020828403121561184f57600080fd5b813567ffffffffffffffff81111561186657600080fd5b6116f284828501611710565b6020815260006118856020830184611616565b9392505050565b600080600080608085870312156118a257600080fd5b843567ffffffffffffffff808211156118ba57600080fd5b6118c688838901611710565b95506020870135945060408701359150808211156118e357600080fd5b6118ef88838901611710565b9350606087013591508082111561190557600080fd5b5061191287828801611710565b91505092959194509250565b6000806040838503121561193157600080fd5b823567ffffffffffffffff81111561194857600080fd5b61195485828601611710565b95602094909401359450505050565b60006020828403121561197557600080fd5b5035919050565b6020815260006118856020830184611681565b6000602082840312156119a157600080fd5b81356001600160a01b038116811461188557600080fd5b6020808252600d908201526c0d2dcecc2d8d2c840d2dcc8caf609b1b604082015260600190565b634e487b7160e01b600052601160045260246000fd5b60008219821115611a0857611a086119df565b500190565b600082821015611a1f57611a1f6119df565b500390565b634e487b7160e01b600052603260045260246000fd5b600181811c90821680611a4e57607f821691505b60208210811415611a6f57634e487b7160e01b600052602260045260246000fd5b50919050565b6000600019821415611a8957611a896119df565b5060010190565b60008251611aa28184602087016115be565b9190910192915050565b6bffffffffffffffffffffffff198360601b16815260008251611ad68160148501602087016115be565b919091016014019392505050565b8281526040602082015260006116f260408301846115ea565b608081526000611b1060808301876115ea565b8560208401528460408401528281036060840152611b2e81856115ea565b97965050505050505056fea2646970667358221220a56445cf220f40c70d875e48d45957646e48b00f177774af6ab728947e5c03dc64736f6c63430008090033",
  "linkReferences": {},
  "deployedLinkReferences": {}
}